{"abi":[{"type":"constructor","inputs":[],"stateMutability":"nonpayable"},{"type":"function","name":"isVerified","inputs":[{"name":"user","type":"address","internalType":"address"}],"outputs":[{"name":"","type":"bool","internalType":"bool"}],"stateMutability":"view"},{"type":"function","name":"owner","inputs":[],"outputs":[{"name":"","type":"address","internalType":"address"}],"stateMutability":"view"},{"type":"function","name":"renounceOwnership","inputs":[],"outputs":[],"stateMutability":"nonpayable"},{"type":"function","name":"transferOwnership","inputs":[{"name":"newOwner","type":"address","internalType":"address"}],"outputs":[],"stateMutability":"nonpayable"},{"type":"function","name":"unverifyAddress","inputs":[{"name":"user","type":"address","internalType":"address"}],"outputs":[],"stateMutability":"nonpayable"},{"type":"function","name":"verifyAddress","inputs":[{"name":"user","type":"address","internalType":"address"}],"outputs":[],"stateMutability":"nonpayable"},{"type":"function","name":"verifyAddressBatch","inputs":[{"name":"users","type":"address[]","internalType":"address[]"}],"outputs":[],"stateMutability":"nonpayable"},{"type":"event","name":"AddressUnverified","inputs":[{"name":"user","type":"address","indexed":true,"internalType":"address"}],"anonymous":false},{"type":"event","name":"AddressVerified","inputs":[{"name":"user","type":"address","indexed":true,"internalType":"address"}],"anonymous":false},{"type":"event","name":"OwnershipTransferred","inputs":[{"name":"previousOwner","type":"address","indexed":true,"internalType":"address"},{"name":"newOwner","type":"address","indexed":true,"internalType":"address"}],"anonymous":false},{"type":"error","name":"OwnableInvalidOwner","inputs":[{"name":"owner","type":"address","internalType":"address"}]},{"type":"error","name":"OwnableUnauthorizedAccount","inputs":[{"name":"account","type":"address","internalType":"address"}]}],"bytecode":{"object":"0x608080604052346071573315605e575f8054336001600160a01b0319821681178355916001600160a01b03909116907f8be0079c531659141344cd1fd0a4f28419497f9722a3daafe3b4186f6b6457e09080a36104b890816100768239f35b631e4fbdf760e01b5f525f60045260245ffd5b5f80fdfe60806040526004361015610011575f80fd5b5f3560e01c8063715018a6146103cd5780638da5cb5b146103a6578063b5980f7d146102f5578063b9209e33146102b4578063c0b34ee1146101aa578063f2fde38b146101215763fcb2cafc14610066575f80fd5b3461011d57602036600319011261011d576004356001600160a01b0381169081900361011d5761009461045c565b805f52600160205260ff60405f2054166100e557805f52600160205260405f20600160ff198254161790557fa73de5a14448d1018a70f5aef0b1eb8f27129ccb6857389295be0104a4fe059f5f80a2005b60405162461bcd60e51b815260206004820152601060248201526f105b1c9958591e481d995c9a599a595960821b6044820152606490fd5b5f80fd5b3461011d57602036600319011261011d576004356001600160a01b0381169081900361011d5761014f61045c565b8015610197575f80546001600160a01b03198116831782556001600160a01b0316907f8be0079c531659141344cd1fd0a4f28419497f9722a3daafe3b4186f6b6457e09080a3005b631e4fbdf760e01b5f525f60045260245ffd5b3461011d57602036600319011261011d5760043567ffffffffffffffff811161011d573660238201121561011d5780600401359067ffffffffffffffff821161011d576024810190602436918460051b01011161011d5761020961045c565b5f5b82811061021457005b6001906001600160a01b0361023261022d838787610424565b610448565b165f528160205260ff60405f2054161561024d575b0161020b565b818060a01b0361026161022d838787610424565b165f528160205260405f208260ff19825416179055818060a01b0361028a61022d838787610424565b167fa73de5a14448d1018a70f5aef0b1eb8f27129ccb6857389295be0104a4fe059f5f80a2610247565b3461011d57602036600319011261011d576004356001600160a01b0381169081900361011d575f526001602052602060ff60405f2054166040519015158152f35b3461011d57602036600319011261011d576004356001600160a01b0381169081900361011d5761032361045c565b805f52600160205260ff60405f2054161561037257805f52600160205260405f2060ff1981541690557f42121504bd1de6c371b16032d12606924d8092931a6351dfa8cba4cde166e5ed5f80a2005b60405162461bcd60e51b815260206004820152600c60248201526b139bdd081d995c9a599a595960a21b6044820152606490fd5b3461011d575f36600319011261011d575f546040516001600160a01b039091168152602090f35b3461011d575f36600319011261011d576103e561045c565b5f80546001600160a01b0319811682556001600160a01b03167f8be0079c531659141344cd1fd0a4f28419497f9722a3daafe3b4186f6b6457e08280a3005b91908110156104345760051b0190565b634e487b7160e01b5f52603260045260245ffd5b356001600160a01b038116810361011d5790565b5f546001600160a01b0316330361046f57565b63118cdaa760e01b5f523360045260245ffdfea2646970667358221220c9c9d44775695dde628ab76da5f3b85281d86243cc52b4395a4beabb77ce6af764736f6c634300081c0033","linkReferences":{}},"methodIdentifiers":{"isVerified(address)":"b9209e33","owner()":"8da5cb5b","renounceOwnership()":"715018a6","transferOwnership(address)":"f2fde38b","unverifyAddress(address)":"b5980f7d","verifyAddress(address)":"fcb2cafc","verifyAddressBatch(address[])":"c0b34ee1"},"id":20}