{"abi":[{"type":"constructor","inputs":[{"name":"_identityRegistry","type":"address","internalType":"address"}],"stateMutability":"nonpayable"},{"type":"function","name":"createEvent","inputs":[{"name":"name","type":"string","internalType":"string"},{"name":"symbol","type":"string","internalType":"string"},{"name":"eventName","type":"string","internalType":"string"},{"name":"eventDate","type":"uint256","internalType":"uint256"},{"name":"basePrice","type":"uint256","internalType":"uint256"},{"name":"organizer","type":"address","internalType":"address"},{"name":"resaleConfig","type":"tuple","internalType":"struct EventTicket.ResaleConfig","components":[{"name":"maxPriceMultiplier","type":"uint256","internalType":"uint256"},{"name":"minHoldPeriod","type":"uint256","internalType":"uint256"},{"name":"maxTransfers","type":"uint256","internalType":"uint256"},{"name":"royaltyBps","type":"uint256","internalType":"uint256"}]}],"outputs":[{"name":"","type":"address","internalType":"address"}],"stateMutability":"nonpayable"},{"type":"function","name":"events","inputs":[{"name":"","type":"uint256","internalType":"uint256"}],"outputs":[{"name":"","type":"address","internalType":"address"}],"stateMutability":"view"},{"type":"function","name":"getAllEvents","inputs":[],"outputs":[{"name":"","type":"address[]","internalType":"address[]"}],"stateMutability":"view"},{"type":"function","name":"getEventCount","inputs":[],"outputs":[{"name":"","type":"uint256","internalType":"uint256"}],"stateMutability":"view"},{"type":"function","name":"identityRegistry","inputs":[],"outputs":[{"name":"","type":"address","internalType":"address"}],"stateMutability":"view"},{"type":"function","name":"isEvent","inputs":[{"name":"","type":"address","internalType":"address"}],"outputs":[{"name":"","type":"bool","internalType":"bool"}],"stateMutability":"view"},{"type":"function","name":"marketplace","inputs":[],"outputs":[{"name":"","type":"address","internalType":"address"}],"stateMutability":"view"},{"type":"function","name":"owner","inputs":[],"outputs":[{"name":"","type":"address","internalType":"address"}],"stateMutability":"view"},{"type":"function","name":"renounceOwnership","inputs":[],"outputs":[],"stateMutability":"nonpayable"},{"type":"function","name":"setMarketplace","inputs":[{"name":"_marketplace","type":"address","internalType":"address"}],"outputs":[],"stateMutability":"nonpayable"},{"type":"function","name":"transferOwnership","inputs":[{"name":"newOwner","type":"address","internalType":"address"}],"outputs":[],"stateMutability":"nonpayable"},{"type":"event","name":"EventCreated","inputs":[{"name":"eventContract","type":"address","indexed":true,"internalType":"address"},{"name":"organizer","type":"address","indexed":true,"internalType":"address"},{"name":"name","type":"string","indexed":false,"internalType":"string"}],"anonymous":false},{"type":"event","name":"MarketplaceSet","inputs":[{"name":"marketplace","type":"address","indexed":true,"internalType":"address"}],"anonymous":false},{"type":"event","name":"OwnershipTransferred","inputs":[{"name":"previousOwner","type":"address","indexed":true,"internalType":"address"},{"name":"newOwner","type":"address","indexed":true,"internalType":"address"}],"anonymous":false},{"type":"error","name":"OwnableInvalidOwner","inputs":[{"name":"owner","type":"address","internalType":"address"}]},{"type":"error","name":"OwnableUnauthorizedAccount","inputs":[{"name":"account","type":"address","internalType":"address"}]}],"bytecode":{"object":"0x60a03461010e57601f6130cc38819003918201601f19168301916001600160401b038311848410176101125780849260209460405283398101031261010e57516001600160a01b03811680820361010e5733156100fb575f8054336001600160a01b0319821681178355604051939290916001600160a01b0316907f8be0079c531659141344cd1fd0a4f28419497f9722a3daafe3b4186f6b6457e09080a3156100c65750608052604051612fa5908161012782396080518181816103b801526107120152f35b62461bcd60e51b815260206004820152601060248201526f496e76616c696420726567697374727960801b6044820152606490fd5b631e4fbdf760e01b5f525f60045260245ffd5b5f80fd5b634e487b7160e01b5f52604160045260245ffdfe60806040526004361015610011575f80fd5b5f5f3560e01c80630b79143014610741578063134e18f4146106fd578063715018a6146106a657806373ad6c2d146106035780638da5cb5b146105dc5780638e9a541b14610269578063abc8c7af14610240578063c27a500d14610178578063d9e48f5c1461015a578063e5face611461011b5763f2fde38b14610093575f80fd5b34610118576020366003190112610118576100ac6107af565b6100b4610861565b6001600160a01b031680156101045781546001600160a01b03198116821783556001600160a01b03167f8be0079c531659141344cd1fd0a4f28419497f9722a3daafe3b4186f6b6457e08380a380f35b631e4fbdf760e01b82526004829052602482fd5b80fd5b50346101185760203660031901126101185760209060ff906040906001600160a01b036101466107af565b168152600384522054166040519015158152f35b50346101185780600319360112610118576020600254604051908152f35b503461011857806003193601126101185760405180602060025491828152018091600285527f405787fa12a823e0f2b7631cc41b3ba8828b3321ca811111fa75cd3aa3bb5ace90855b81811061022157505050826101d79103836107c5565b604051928392602084019060208552518091526040840192915b8181106101ff575050500390f35b82516001600160a01b03168452859450602093840193909201916001016101f1565b82546001600160a01b03168452602090930192600192830192016101c1565b50346101185780600319360112610118576001546040516001600160a01b039091168152602090f35b503461058b5761014036600319011261058b5760043567ffffffffffffffff811161058b5761029c9036906004016107e7565b60243567ffffffffffffffff811161058b576102bc9036906004016107e7565b9060443567ffffffffffffffff811161058b576102dd9036906004016107e7565b9160a4356001600160a01b038116929083900361058b5760803660c319011261058b576040516080810181811067ffffffffffffffff82111761058f5760405260c43581526020810160e435815260408201936101043585526060830161012435815286156105a357604051956126e8938488019488861067ffffffffffffffff87111761058f576103986101409561038a8b9a6103a6946108888d396101608a526101608a019061083d565b9088820360208a015261083d565b86810360408801528b61083d565b606435606087015260843560808701527f00000000000000000000000000000000000000000000000000000000000000006001600160a01b031660a087015260c086018a9052955160e086015251610100850152516101208401525191015203905ff08015610580576001546001600160a01b03168061052f575b506001600160a01b031691823b15610520578360405163f2fde38b60e01b8152836004820152818160248183895af180156105245761050b575b5050600254680100000000000000008110156104f7576104ec849260406020976104ac8560017fa54c7891edaa21526f9ad14c69ae2fd966ac0969fcd9a990a4e006427afd382e9701600255610783565b8154600391821b89811b6001600160a01b0390911b1990911617909155868252895220805460ff191660011790556040518781529182918289019061083d565b0390a3604051908152f35b634e487b7160e01b85526041600452602485fd5b81610515916107c5565b61052057835f61045b565b8380fd5b6040513d84823e3d90fd5b6001600160a01b03821690813b1561058b575f916024839260405194859384926373ad6c2d60e01b845260048401525af180156105805715610421576105789194505f906107c5565b5f925f610421565b6040513d5f823e3d90fd5b5f80fd5b634e487b7160e01b5f52604160045260245ffd5b60405162461bcd60e51b815260206004820152601160248201527024b73b30b634b21037b933b0b734bd32b960791b6044820152606490fd5b3461058b575f36600319011261058b575f546040516001600160a01b039091168152602090f35b3461058b57602036600319011261058b5761061c6107af565b610624610861565b6001600160a01b0316801561066b57600180546001600160a01b031916821790557f78fd71746fd8724dd16b5a93e765a076614159ebdc73d996a6a8884f358898e55f80a2005b60405162461bcd60e51b8152602060048201526013602482015272496e76616c6964206d61726b6574706c61636560681b6044820152606490fd5b3461058b575f36600319011261058b576106be610861565b5f80546001600160a01b0319811682556001600160a01b03167f8be0079c531659141344cd1fd0a4f28419497f9722a3daafe3b4186f6b6457e08280a3005b3461058b575f36600319011261058b576040517f00000000000000000000000000000000000000000000000000000000000000006001600160a01b03168152602090f35b3461058b57602036600319011261058b5760043560025481101561058b5761076a602091610783565b905460405160039290921b1c6001600160a01b03168152f35b60025481101561079b5760025f5260205f2001905f90565b634e487b7160e01b5f52603260045260245ffd5b600435906001600160a01b038216820361058b57565b90601f8019910116810190811067ffffffffffffffff82111761058f57604052565b81601f8201121561058b5780359067ffffffffffffffff821161058f576040519261081c601f8401601f1916602001856107c5565b8284526020838301011161058b57815f926020809301838601378301015290565b805180835260209291819084018484015e5f828201840152601f01601f1916010190565b5f546001600160a01b0316330361087457565b63118cdaa760e01b5f523360045260245ffdfe60a0604052346106e3576126e880380380610019816106e7565b9283398101908082039161016083126106e35781516001600160401b0381116106e3578161004891840161070c565b60208301519093906001600160401b0381116106e3578261006a91850161070c565b604084015190926001600160401b0382116106e35761008a91850161070c565b60608401519160808501516100a160a0870161075d565b9360806100b060c0890161075d565b9360df1901126106e35760405194608086016001600160401b038111878210176103f65760405260e0880151865261010088015196602087019788526101406101208a015199604089019a8b52015199606088019a8b5280519060018060401b0382116103f6575f5490600182811c921680156106d9575b60208310146103d85781601f84931161066c575b50602090601f8311600114610609575f926105fe575b50508160011b915f199060031b1c1916175f555b8051906001600160401b0382116103f65760015490600182811c921680156105f4575b60208310146103d85781601f849311610586575b50602090601f8311600114610520575f92610515575b50508160011b915f199060031b1c1916176001555b331561050257600a8054336001600160a01b03198216811790925560405191906001600160a01b03167f8be0079c531659141344cd1fd0a4f28419497f9722a3daafe3b4186f6b6457e05f80a3428311156104c05750821561047b576001600160a01b0316928315610443576001600160a01b031693841561040a578051906001600160401b0382116103f657600d5490600182811c921680156103ec575b60208310146103d85781601f84931161036a575b50602090601f8311600114610304575f926102f9575b50508160011b915f199060031b1c191617600d555b600e55600f55608052600c80546001600160a01b03191691909117905551601155516012555160135551601455604051611f76908161077282396080518181816108ce0152818161141f01526118ec0152f35b015190505f80610291565b600d5f9081528281209350601f198516905b818110610352575090846001959493921061033a575b505050811b01600d556102a6565b01515f1960f88460031b161c191690555f808061032c565b92936020600181928786015181550195019301610316565b600d5f529091507fd7b6990105719101dabeb77144f2a3385c8033acd3af97e9423a695e81ad1eb5601f840160051c810191602085106103ce575b90601f859493920160051c01905b8181106103c0575061027b565b5f81558493506001016103b3565b90915081906103a5565b634e487b7160e01b5f52602260045260245ffd5b91607f1691610267565b634e487b7160e01b5f52604160045260245ffd5b60405162461bcd60e51b815260206004820152601160248201527024b73b30b634b21037b933b0b734bd32b960791b6044820152606490fd5b60405162461bcd60e51b815260206004820152601060248201526f496e76616c696420726567697374727960801b6044820152606490fd5b60405162461bcd60e51b815260206004820152601660248201527f42617365207072696365206d757374206265203e2030000000000000000000006044820152606490fd5b62461bcd60e51b815260206004820152601c60248201527f4576656e742064617465206d75737420626520696e20667574757265000000006044820152606490fd5b631e4fbdf760e01b5f525f60045260245ffd5b015190505f806101b3565b60015f9081528281209350601f198516905b81811061056e5750908460019594939210610556575b505050811b016001556101c8565b01515f1960f88460031b161c191690555f8080610548565b92936020600181928786015181550195019301610532565b60015f529091507fb10e2d527612073b26eecdfd717e6a320cf44b4afac2b0732d9fcbe2b7fa0cf6601f840160051c810191602085106105ea575b90601f859493920160051c01905b8181106105dc575061019d565b5f81558493506001016105cf565b90915081906105c1565b91607f1691610189565b015190505f80610152565b5f8080528281209350601f198516905b818110610654575090846001959493921061063c575b505050811b015f55610166565b01515f1960f88460031b161c191690555f808061062f565b92936020600181928786015181550195019301610619565b5f80529091507f290decd9548b62a8d60345a988386fc84ba6bc95484008f6362f93160ef3e563601f840160051c810191602085106106cf575b90601f859493920160051c01905b8181106106c1575061013c565b5f81558493506001016106b4565b90915081906106a6565b91607f1691610128565b5f80fd5b6040519190601f01601f191682016001600160401b038111838210176103f657604052565b81601f820112156106e3578051906001600160401b0382116103f65761073b601f8301601f19166020016106e7565b92828452602083830101116106e357815f9260208093018386015e8301015290565b51906001600160a01b03821682036106e35756fe6080806040526004361015610012575f80fd5b5f905f3560e01c90816301ffc9a71461169b5750806305aaff311461165957806306fdde03146115b7578063081812fc1461157b578063095ea7b3146114915780630e2f78ba1461144e578063134e18f41461140a57806315f59d7f146112fd57806318160ddd146112e057806323b872dd146112c95780632f745c59146112575780633ccfd60b146111e957806342842e0e146111ba5780634bfbe5df1461119d5780634f6ccce71461114f57806350b44712146110405780635388842c1461084e57806361203265146108265780636352211e146107f657806370a08231146107cb578063715018a61461077057806373ad6c2d146106cd5780638043c9c0146106285780638595bee1146105f257806386ec6177146105a75780638da5cb5b1461057f57806390118fb41461054257806395d89b4114610464578063a22cb465146103c0578063abc8c7af14610398578063b88d4fde1461032a578063c7876ea41461030d578063c87b56dd146102b0578063e985e9c514610258578063f2fde38b146101cf5763f57e63e2146101aa575f80fd5b346101cc57806003193601126101cc57602060ff601054166040519015158152f35b80fd5b50346101cc5760203660031901126101cc576101e9611744565b6101f1611de3565b6001600160a01b0316801561024457600a80546001600160a01b0319811683179091556001600160a01b03167f8be0079c531659141344cd1fd0a4f28419497f9722a3daafe3b4186f6b6457e05f80a380f35b631e4fbdf760e01b82526004829052602482fd5b50346101cc5760403660031901126101cc576040610274611744565b9161027d61175a565b9260018060a01b031681526005602052209060018060a01b03165f52602052602060ff60405f2054166040519015158152f35b34610309576020366003190112610309576102cc600435611daf565b505f6040516102dc6020826117e2565b526103056040516102ee6020826117e2565b5f8152604051918291602083526020830190611720565b0390f35b5f80fd5b34610309575f366003190112610309576020600f54604051908152f35b3461030957608036600319011261030957610343611744565b61034b61175a565b906044356064359267ffffffffffffffff8411610309573660238501121561030957610384610396943690602481600401359101611820565b92610390838383611a27565b33611e0a565b005b34610309575f36600319011261030957600b546040516001600160a01b039091168152602090f35b34610309576040366003190112610309576103d9611744565b6024359081151590818303610309576001600160a01b03169182156104515761042390335f52600560205260405f20845f5260205260405f209060ff801983541691151516179055565b6040519081527f17307eab39ab6107e8899845ad3d59bd9653f200f220920489ca2b5937696c3160203392a3005b82630b61174360e31b5f5260045260245ffd5b34610309575f366003190112610309576040515f600154610484816117aa565b808452906001811690811561051e57506001146104c0575b610305836104ac818503826117e2565b604051918291602083526020830190611720565b60015f9081527fb10e2d527612073b26eecdfd717e6a320cf44b4afac2b0732d9fcbe2b7fa0cf6939250905b808210610504575090915081016020016104ac61049c565b9192600181602092548385880101520191019092916104ec565b60ff191660208086019190915291151560051b840190910191506104ac905061049c565b34610309576020366003190112610309576001600160a01b03610563611744565b165f526016602052602060ff60405f2054166040519015158152f35b34610309575f36600319011261030957600a546040516001600160a01b039091168152602090f35b34610309575f366003190112610309576105bf611de3565b600160ff1960105416176010557f1963c37d6958adb19792f2bd9c53acfe5cb375354b90058bb804e85867c35b825f80a1005b34610309575f36600319011261030957608060115460125460135460145491604051938452602084015260408301526060820152f35b34610309575f366003190112610309576040515f600d54610648816117aa565b808452906001811690811561051e575060011461066f57610305836104ac818503826117e2565b600d5f9081527fd7b6990105719101dabeb77144f2a3385c8033acd3af97e9423a695e81ad1eb5939250905b8082106106b3575090915081016020016104ac61049c565b91926001816020925483858801015201910190929161069b565b34610309576020366003190112610309576106e6611744565b6106ee611de3565b6001600160a01b0316801561073557600b80546001600160a01b031916821790557f78fd71746fd8724dd16b5a93e765a076614159ebdc73d996a6a8884f358898e55f80a2005b60405162461bcd60e51b8152602060048201526013602482015272496e76616c6964206d61726b6574706c61636560681b6044820152606490fd5b34610309575f36600319011261030957610788611de3565b600a80546001600160a01b031981169091555f906001600160a01b03167f8be0079c531659141344cd1fd0a4f28419497f9722a3daafe3b4186f6b6457e08280a3005b346103095760203660031901126103095760206107ee6107e9611744565b611d7e565b604051908152f35b34610309576020366003190112610309576020610814600435611daf565b6040516001600160a01b039091168152f35b34610309575f36600319011261030957600c546040516001600160a01b039091168152602090f35b604036600319011261030957610862611744565b60243567ffffffffffffffff811161030957366023820112156103095780600401359167ffffffffffffffff83116103095736602484840101116103095760405163b9209e3360e01b81526001600160a01b0382811660048301819052939190602090829060249082907f0000000000000000000000000000000000000000000000000000000000000000165afa908115611035575f91611006575b5015610fcc57825f52601660205260ff60405f205416610f9357600f5490813410610f575760ff60105416610f2457601754945f198614610d0857600186016017556040519260a0840184811067ffffffffffffffff821117610d1c57604052835260ff61097f602085019342855260408601935f85526024369201611820565b916060850192835260808501935f8552885f52601560205260405f2095518655516001860155511660ff60028501911660ff1982541617905560038301905180519067ffffffffffffffff8211610d1c576109da83546117aa565b601f8111610edf575b50602090601f8311600114610e7457918060049492610a2f9796945f92610e69575b50508160011b915f199060031b1c19161790555b51151591019060ff801983541691151516179055565b815f52601660205260405f20600160ff1982541617905560209060405190610a5783836117e2565b5f82528315610e56575f8581526002845260409020546001600160a01b0316151580610e4e575b610dd7575b5f8581526002845260409020546001600160a01b031680158015919082610da6575b865f526003865260405f2060018154019055875f526002865260405f20876bffffffffffffffffffffffff60a01b8254161790558787837fddf252ad1be2c89b69c2b068fc378daa952ba7f163c4a11628f55a4df523b3ef5f80a415610d3057600854875f52600986528060405f2055600160401b811015610d1c5787610b35826001610b4d9401600855611d52565b90919082549060031b91821b915f19901b1916179055565b858103610ccd575b50610cba573b610b8f575b507fcbea9c23945e351434f7ae5b1a435091cc278dd9dd0eba4c04203674014ca7d790600f54604051908152a3005b81610bc89160405180938192630a85bd0160e11b83523360048401525f6024840152886044840152608060648401526084830190611720565b03815f875af15f9181610c7a575b50610c2a57503d15610c22573d90610bed82611804565b91610bfb60405193846117e2565b82523d5f8284013e5b81519182610c1f5783633250574960e11b5f5260045260245ffd5b01fd5b606090610c04565b6001600160e01b03191663757a42ff60e11b01610c67577fcbea9c23945e351434f7ae5b1a435091cc278dd9dd0eba4c04203674014ca7d7610b60565b50633250574960e11b5f5260045260245ffd5b9091508281813d8311610cb3575b610c9281836117e2565b8101031261030957516001600160e01b031981168103610309579085610bd6565b503d610c88565b6339e3563760e11b5f525f60045260245ffd5b610cd683611d7e565b5f198101908111610d0857865f526006865260405f20815f5286528760405f2055875f526007865260405f2055610b55565b634e487b7160e01b5f52601160045260245ffd5b634e487b7160e01b5f52604160045260245ffd5b808614610b4d57610d4081611d7e565b875f526007865260405f205490825f526006875260405f2091818103610d7e575b50885f52600787525f60408120555f5285525f6040812055610b4d565b815f5282885260405f2054815f528389528060405f20555f526007885260405f205589610d61565b5f8881526004602052604080822080546001600160a01b031916905583825260038852902080545f19019055610aa5565b610de1818661186e565b9015610e285750845f5260158352600260405f200160ff81541660ff8114610d0857600160ff91011660ff19825416179055845f526015835242600160405f200155610a83565b83610e4a60405192839262461bcd60e51b845260048401526024830190611720565b0390fd5b506001610a7e565b633250574960e11b5f525f60045260245ffd5b015190508a80610a05565b90601f19831691845f52815f20925f5b818110610ec75750926001928592610a2f9998966004989610610eaf575b505050811b019055610a19565b01515f1960f88460031b161c191690558a8080610ea2565b92936020600181928786015181550195019301610e84565b835f5260205f20601f840160051c81019160208510610f1a575b601f0160051c01905b818110610f0f57506109e3565b5f8155600101610f02565b9091508190610ef9565b60405162461bcd60e51b815260206004820152600b60248201526a115d995b9d08195b99195960aa1b6044820152606490fd5b60405162461bcd60e51b8152602060048201526014602482015273125b9cdd59999a58da595b9d081c185e5b595b9d60621b6044820152606490fd5b60405162461bcd60e51b8152602060048201526011602482015270105b1c9958591e481c1d5c98da185cd959607a1b6044820152606490fd5b60405162461bcd60e51b8152602060048201526012602482015271109d5e595c881b9bdd081d995c9a599a595960721b6044820152606490fd5b611028915060203d60201161102e575b61102081836117e2565b810190611856565b856108fe565b503d611016565b6040513d5f823e3d90fd5b34610309576020366003190112610309576004355f52601560205260405f20805460018201549160ff600282015416906003810190604051915f90805490611087826117aa565b808652916001811690811561112757506001146110e9575b5050600483926110b66110dd9560ff9403856117e2565b0154169260405195869586526020860152604085015260a0606085015260a0840190611720565b90151560808301520390f35b5f908152602081209092505b81831061110d575050820160200160046110dd61109f565b6001816020929493945483858901015201910191906110f5565b60ff191660208088019190915292151560051b86019092019250600491506110dd905061109f565b346103095760203660031901126103095760043560085481101561118757611178602091611d52565b90549060031b1c604051908152f35b63295f44f760e21b5f525f60045260245260445ffd5b34610309575f366003190112610309576020600e54604051908152f35b34610309576103966111cb36611770565b90604051926111db6020856117e2565b5f8452610390838383611a27565b34610309575f36600319011261030957611201611de3565b47801561122557600c545f918291829182916001600160a01b031682f11561103557005b60405162461bcd60e51b815260206004820152600a6024820152694e6f2062616c616e636560b01b6044820152606490fd5b3461030957604036600319011261030957611270611744565b6024359061127d81611d7e565b8210156112ac5760018060a01b03165f52600660205260405f20905f52602052602060405f2054604051908152f35b63295f44f760e21b5f5260018060a01b031660045260245260445ffd5b34610309576103966112da36611770565b91611a27565b34610309575f366003190112610309576020600854604051908152f35b346103095760203660031901126103095760043561131a81611daf565b6001600160a01b0316331480156113f6575b156113c057805f52601560205260ff600460405f2001541661138857805f526015602052600460405f2001600160ff198254161790557fb0ebd5f2f7c40ca5715d8deab780894f023a63bc249fc45e69df6acbc4e8b5685f80a2005b60405162461bcd60e51b815260206004820152601060248201526f105b1c9958591e481c995919595b595960821b6044820152606490fd5b60405162461bcd60e51b815260206004820152600e60248201526d139bdd08185d5d1a1bdc9a5e995960921b6044820152606490fd5b50600c546001600160a01b0316331461132c565b34610309575f366003190112610309576040517f00000000000000000000000000000000000000000000000000000000000000006001600160a01b03168152602090f35b346103095760403660031901126103095761147261146a61175a565b60043561186e565b9061030560405192839215158352604060208401526040830190611720565b34610309576040366003190112610309576114aa611744565b6024356114b681611daf565b33151580611568575b8061153b575b6115285781906001600160a01b0384811691167f8c5be1e5ebec7d5bd14f71427d1e84f3dd0314c0f7b2291e5b200ac8c7c3b9255f80a45f90815260046020526040902080546001600160a01b0319166001600160a01b03909216919091179055005b63a9fbf51f60e01b5f523360045260245ffd5b506001600160a01b0381165f90815260056020908152604080832033845290915290205460ff16156114c5565b506001600160a01b0381163314156114bf565b346103095760203660031901126103095760043561159881611daf565b505f526004602052602060018060a01b0360405f205416604051908152f35b34610309575f366003190112610309576040515f5f546115d6816117aa565b808452906001811690811561051e57506001146115fd57610305836104ac818503826117e2565b5f8080527f290decd9548b62a8d60345a988386fc84ba6bc95484008f6362f93160ef3e563939250905b80821061163f575090915081016020016104ac61049c565b919260018160209254838588010152019101909291611627565b34610309576020366003190112610309576004355f52601560205260405f205460115490818102918183041490151715610d0857602090606460405191048152f35b34610309576020366003190112610309576004359063ffffffff60e01b82168092036103095760209163780e9d6360e01b81149081156116dd575b5015158152f35b6380ac58cd60e01b81149150811561170f575b81156116fe575b50836116d6565b6301ffc9a760e01b149050836116f7565b635b5e139f60e01b811491506116f0565b805180835260209291819084018484015e5f828201840152601f01601f1916010190565b600435906001600160a01b038216820361030957565b602435906001600160a01b038216820361030957565b6060906003190112610309576004356001600160a01b038116810361030957906024356001600160a01b0381168103610309579060443590565b90600182811c921680156117d8575b60208310146117c457565b634e487b7160e01b5f52602260045260245ffd5b91607f16916117b9565b90601f8019910116810190811067ffffffffffffffff821117610d1c57604052565b67ffffffffffffffff8111610d1c57601f01601f191660200190565b92919261182c82611804565b9161183a60405193846117e2565b829481845281830111610309578281602093845f960137010152565b90816020910312610309575180151581036103095790565b805f52601560205260ff600460405f200154166119f657805f526015602052600160405f2001546012548101809111610d085742106119c1575f52601560205260ff600260405f20015416601354111561198a5760405163b9209e3360e01b81526001600160a01b03918216600482015290602090829060249082907f0000000000000000000000000000000000000000000000000000000000000000165afa908115611035575f9161196b575b5015611939576001906040516119336020826117e2565b5f815290565b5f906040516119496040826117e2565b6012815271109d5e595c881b9bdd081d995c9a599a595960721b602082015290565b611984915060203d60201161102e5761102081836117e2565b5f61191c565b505f9060405161199b6040826117e2565b601681527513585e081d1c985b9cd9995c9cc8195e18d95959195960521b602082015290565b50505f906040516119d36040826117e2565b6013815272121bdb19081c195c9a5bd9081b9bdd081b595d606a1b602082015290565b50505f90604051611a086040826117e2565b600f81526e151a58dad95d081c995919595b5959608a1b602082015290565b9091906001600160a01b0383168015610e56575f838152600260205260409020546001600160a01b0316151580611d4a575b611cd3575b5f838152600260205260409020546001600160a01b03169333151580611c43575b5084158015611c10575b825f52600360205260405f2060018154019055845f52600260205260405f20836bffffffffffffffffffffffff60a01b8254161790558483877fddf252ad1be2c89b69c2b068fc378daa952ba7f163c4a11628f55a4df523b3ef5f80a415611b9357600854845f5260096020528060405f2055600160401b811015610d1c5784610b35826001611b1c9401600855611d52565b818503611b53575b50506001600160a01b0316808303611b3b57505050565b6364283d7b60e01b5f5260045260245260445260645ffd5b611b5c90611d7e565b5f19810191908211610d08575f52600660205260405f20815f526020528260405f2055825f52600760205260405f20555f80611b24565b848214611b1c57611ba385611d7e565b845f52600760205260405f205490865f52600660205260405f2091818103611be5575b50855f5260076020525f60408120555f526020525f6040812055611b1c565b815f528260205260405f2054815f52836020528060405f20555f52600760205260405f20555f611bc6565b5f85815260046020526040902080546001600160a01b0319169055855f52600360205260405f205f198154019055611a89565b80611c82575b15611c54575f611a7f565b8385611c6c57637e27328960e01b5f5260045260245ffd5b63177e802f60e01b5f523360045260245260445ffd5b503385148015611cb1575b80611c4957505f848152600460205260409020546001600160a01b03163314611c49565b505f85815260056020908152604080832033845290915290205460ff16611c8d565b611cdd848461186e565b9015611d265750825f526015602052600260405f200160ff81541660ff8114610d0857600160ff91011660ff19825416179055825f52601560205242600160405f200155611a5e565b60405162461bcd60e51b815260206004820152908190610e4a906024830190611720565b506001611a59565b600854811015611d6a5760085f5260205f2001905f90565b634e487b7160e01b5f52603260045260245ffd5b6001600160a01b03168015611d9c575f52600360205260405f205490565b6322718ad960e21b5f525f60045260245ffd5b5f818152600260205260409020546001600160a01b0316908115611dd1575090565b637e27328960e01b5f5260045260245ffd5b600a546001600160a01b03163303611df757565b63118cdaa760e01b5f523360045260245ffd5b823b611e18575b5050505050565b604051630a85bd0160e11b81526001600160a01b039182166004820152918116602483015260448201939093526080606482015291169160209082908190611e64906084830190611720565b03815f865af15f9181611efb575b50611ec757503d15611ec0573d611e8881611804565b90611e9660405192836117e2565b81523d5f602083013e5b80519081611ebb5782633250574960e11b5f5260045260245ffd5b602001fd5b6060611ea0565b6001600160e01b03191663757a42ff60e11b01611ee957505f80808080611e11565b633250574960e11b5f5260045260245ffd5b9091506020813d602011611f38575b81611f17602093836117e2565b8101031261030957516001600160e01b03198116810361030957905f611e72565b3d9150611f0a56fea2646970667358221220ce96dd9ab62891967a7b53ca860560f6a79d055a23719004fffc167ca412afb664736f6c634300081c0033a26469706673582212207412071852cc1e4173201848bebdc588ce59585c227a3ea3936f6c4daf75aedb64736f6c634300081c0033","linkReferences":{}},"methodIdentifiers":{"createEvent(string,string,string,uint256,uint256,address,(uint256,uint256,uint256,uint256))":"8e9a541b","events(uint256)":"0b791430","getAllEvents()":"c27a500d","getEventCount()":"d9e48f5c","identityRegistry()":"134e18f4","isEvent(address)":"e5face61","marketplace()":"abc8c7af","owner()":"8da5cb5b","renounceOwnership()":"715018a6","setMarketplace(address)":"73ad6c2d","transferOwnership(address)":"f2fde38b"},"id":18}