{"abi":[{"type":"function","name":"buyTicket","inputs":[{"name":"nftContract","type":"address","internalType":"address"},{"name":"tokenId","type":"uint256","internalType":"uint256"}],"outputs":[],"stateMutability":"payable"},{"type":"function","name":"cancelListing","inputs":[{"name":"nftContract","type":"address","internalType":"address"},{"name":"tokenId","type":"uint256","internalType":"uint256"}],"outputs":[],"stateMutability":"nonpayable"},{"type":"function","name":"getListing","inputs":[{"name":"nftContract","type":"address","internalType":"address"},{"name":"tokenId","type":"uint256","internalType":"uint256"}],"outputs":[{"name":"","type":"tuple","internalType":"struct TicketMarketplace.Listing","components":[{"name":"seller","type":"address","internalType":"address"},{"name":"price","type":"uint256","internalType":"uint256"},{"name":"active","type":"bool","internalType":"bool"}]}],"stateMutability":"view"},{"type":"function","name":"listTicket","inputs":[{"name":"nftContract","type":"address","internalType":"address"},{"name":"tokenId","type":"uint256","internalType":"uint256"},{"name":"price","type":"uint256","internalType":"uint256"}],"outputs":[],"stateMutability":"nonpayable"},{"type":"function","name":"listings","inputs":[{"name":"","type":"address","internalType":"address"},{"name":"","type":"uint256","internalType":"uint256"}],"outputs":[{"name":"seller","type":"address","internalType":"address"},{"name":"price","type":"uint256","internalType":"uint256"},{"name":"active","type":"bool","internalType":"bool"}],"stateMutability":"view"},{"type":"event","name":"ListingCancelled","inputs":[{"name":"nftContract","type":"address","indexed":true,"internalType":"address"},{"name":"tokenId","type":"uint256","indexed":true,"internalType":"uint256"}],"anonymous":false},{"type":"event","name":"TicketListed","inputs":[{"name":"nftContract","type":"address","indexed":true,"internalType":"address"},{"name":"tokenId","type":"uint256","indexed":true,"internalType":"uint256"},{"name":"seller","type":"address","indexed":true,"internalType":"address"},{"name":"price","type":"uint256","indexed":false,"internalType":"uint256"}],"anonymous":false},{"type":"event","name":"TicketSold","inputs":[{"name":"nftContract","type":"address","indexed":true,"internalType":"address"},{"name":"tokenId","type":"uint256","indexed":true,"internalType":"uint256"},{"name":"buyer","type":"address","indexed":true,"internalType":"address"},{"name":"seller","type":"address","indexed":false,"internalType":"address"},{"name":"price","type":"uint256","indexed":false,"internalType":"uint256"}],"anonymous":false},{"type":"error","name":"ReentrancyGuardReentrantCall","inputs":[]}],"bytecode":{"object":"0x6080806040523460195760015f55610c6c908161001e8239f35b5f80fdfe6080806040526004361015610012575f80fd5b5f905f3560e01c90816207df3014610b04575080631d66b15c146105db57806366a5ef2f146101df57806388700d1c146101405763b2ddee0614610054575f80fd5b3461013d57604036600319011261013d5761006d610b69565b6001600160a01b039081168083526001602090815260408085206024358087529252842080549193909116330361010b57600201805460ff8116156100d95760ff191690557f93ec4766fcd2d9dfdceab8f2e13ba0d9d826645cf03167fdb92b3b7359b5248c8380a380f35b60405162461bcd60e51b815260206004820152600a6024820152694e6f742061637469766560b01b6044820152606490fd5b60405162461bcd60e51b815260206004820152600a6024820152692737ba1039b2b63632b960b11b6044820152606490fd5b80fd5b503461013d57604036600319011261013d57604060609161015f610b69565b8183805161016c81610b7f565b828152826020820152015260018060a01b03168152600160205281812060243582526020522060405161019e81610b7f565b60018060a01b0382541691828252604060ff600260018401549360208601948552015416920191151582526040519283525160208301525115156040820152f35b5060403660031901126104be576101f4610b69565b60243590610200610c18565b60018060a01b031690815f52600160205260405f20815f5260205260405f209160405161022c81610b7f565b83546001600160a01b0316815260018401546020820190815260029094015460ff1615801560408301526105a9578351341061056d576040516331a9108f60e11b815260048101849052602081602481865afa9081156104b3575f9161054e575b5081516001600160a01b0390811691160361050957815f52600160205260405f20835f52602052600260405f200160ff198154169055604051638595bee160e01b8152608081600481865afa9081156104b3575f916104d6575b5084518181029181830414901517156104c257612710900461030a818651610c0b565b82516001600160a01b0316843b156104be5760405190632142170760e11b825260048201523360248201528560448201525f8160648183895af180156104b35761049c575b509086808080809560018060a01b03885116828215610493575bf115610486578015908115610403575b505084518034116103cb575b505060018060a01b03905116925160405193845260208401527f44bd06404febb5a30803bcbe4429cdaf74ab54c2df93fd090fc19ab98fe3e54060403394a46001815580f35b81806103d8819334610c0b565b8181156103fa575b3390f1156103ef57845f610385565b6040513d86823e3d90fd5b506108fc6103e0565b604051636120326560e01b8152602081600481895afa9182156103ef578493849384938491610457575b50839161044d575b6001600160a01b031690f1156103ef57845f80610379565b6108fc9150610435565b610479915060203d60201161047f575b6104718183610b9b565b810190610bbd565b5f61042d565b503d610467565b50604051903d90823e3d90fd5b506108fc610369565b6104aa919297505f90610b9b565b5f95905f61034f565b6040513d5f823e3d90fd5b5f80fd5b634e487b7160e01b5f52601160045260245ffd5b6104f8915060803d608011610502575b6104f08183610b9b565b810190610be9565b925050505f6102e7565b503d6104e6565b60405162461bcd60e51b815260206004820152601c60248201527f53656c6c6572206e6f206c6f6e676572206f776e73207469636b6574000000006044820152606490fd5b610567915060203d60201161047f576104718183610b9b565b5f61028d565b60405162461bcd60e51b8152602060048201526014602482015273125b9cdd59999a58da595b9d081c185e5b595b9d60621b6044820152606490fd5b60405162461bcd60e51b815260206004820152600a602482015269139bdd081b1a5cdd195960b21b6044820152606490fd5b346104be5760603660031901126104be576105f4610b69565b60243560443591610603610c18565b6040516331a9108f60e11b8152600481018390526001600160a01b039190911690602081602481855afa9081156104b3575f91610ae5575b50336001600160a01b0390911603610ab4578215610a7b576040516305aaff3160e01b815260048101839052602081602481855afa9081156104b3575f91610a49575b508311610a105760405163285a238960e11b8152600481018390525f81602481855afa80156104b3575f915f9161094a575b50604051638595bee160e01b815291608083600481875afa9283156104b3575f905f94610924575b5081018091116104c25742106108e95760ff1610156108ab5760405163e985e9c560e01b8152336004820152306024820152602081604481855afa9081156104b3575f91610871575b508015610815575b156107d05760405161073a81610b7f565b33815260026020820191858352604081019260018452845f52600160205260405f20865f5260205260405f209160018060a01b039051166bffffffffffffffffffffffff60a01b835416178255516001820155019051151560ff801983541691161790556040519283527f2557d31ebd8593fa06c935e1d0292184d80caac7706ef5e5b49f4afe2a761c4460203394a460015f55005b60405162461bcd60e51b815260206004820152601860248201527f4d61726b6574706c616365206e6f7420617070726f76656400000000000000006044820152606490fd5b5060405163020604bf60e21b815260048101839052602081602481855afa9081156104b3575f91610852575b506001600160a01b03163014610729565b61086b915060203d60201161047f576104718183610b9b565b84610841565b90506020813d6020116108a3575b8161088c60209383610b9b565b810103126104be5761089d90610bdc565b84610721565b3d915061087f565b60405162461bcd60e51b815260206004820152601660248201527513585e081d1c985b9cd9995c9cc8195e18d95959195960521b6044820152606490fd5b60405162461bcd60e51b8152602060048201526013602482015272121bdb19081c195c9a5bd9081b9bdd081b595d606a1b6044820152606490fd5b905061094091935060803d608011610502576104f08183610b9b565b50939150876106d8565b9150503d805f833e61095c8183610b9b565b81019060a0818303126104be5760208101519060408101519260ff841684036104be57606082015167ffffffffffffffff81116104be5782019181601f840112156104be5782519167ffffffffffffffff83116109fc57604051906109cb601f8501601f191660200183610b9b565b838252602084860101116104be576020835f92608095836109f498018483015e01015201610bdc565b5090856106b0565b634e487b7160e01b5f52604160045260245ffd5b60405162461bcd60e51b81526020600482015260116024820152700507269636520657863656564732063617607c1b6044820152606490fd5b90506020813d602011610a73575b81610a6460209383610b9b565b810103126104be57518461067e565b3d9150610a57565b60405162461bcd60e51b815260206004820152601160248201527005072696365206d757374206265203e203607c1b6044820152606490fd5b60405162461bcd60e51b81526020600482015260096024820152682737ba1037bbb732b960b91b6044820152606490fd5b610afe915060203d60201161047f576104718183610b9b565b8461063b565b346104be5760403660031901126104be576060906001600160a01b03610b28610b69565b165f52600160205260405f206024355f5260205260405f2060018060a01b038154169060ff6002600183015492015416918352602083015215156040820152f35b600435906001600160a01b03821682036104be57565b6060810190811067ffffffffffffffff8211176109fc57604052565b90601f8019910116810190811067ffffffffffffffff8211176109fc57604052565b908160209103126104be57516001600160a01b03811681036104be5790565b519081151582036104be57565b91908260809103126104be578151916020810151916060604083015192015190565b919082039182116104c257565b60025f5414610c275760025f55565b633ee5aeb560e01b5f5260045ffdfea2646970667358221220535e1488d3674332e80aa8e34fc49b1e5aae4b46f305224702b00d1fd871df6564736f6c634300081c0033","linkReferences":{}},"methodIdentifiers":{"buyTicket(address,uint256)":"66a5ef2f","cancelListing(address,uint256)":"b2ddee06","getListing(address,uint256)":"88700d1c","listTicket(address,uint256,uint256)":"1d66b15c","listings(address,uint256)":"0007df30"},"id":40}